{
  "contractName": "FractalSale",
  "abi": [
    {
      "inputs": [
        {
          "internalType": "contract Fractal",
          "name": "_tokenContract",
          "type": "address"
        }
      ],
      "payable": false,
      "stateMutability": "nonpayable",
      "type": "constructor"
    },
    {
      "constant": true,
      "inputs": [],
      "name": "tokenContract",
      "outputs": [
        {
          "internalType": "contract Fractal",
          "name": "",
          "type": "address"
        }
      ],
      "payable": false,
      "stateMutability": "view",
      "type": "function"
    }
  ],
  "bytecode": "0x608060405234801561001057600080fd5b506040516101a43803806101a48339818101604052602081101561003357600080fd5b8101908080519060200190929190505050336000806101000a81548173ffffffffffffffffffffffffffffffffffffffff021916908373ffffffffffffffffffffffffffffffffffffffff16021790555080600160006101000a81548173ffffffffffffffffffffffffffffffffffffffff021916908373ffffffffffffffffffffffffffffffffffffffff1602179055505060d0806100d46000396000f3fe6080604052348015600f57600080fd5b506004361060285760003560e01c806355a373d614602d575b600080fd5b60336075565b604051808273ffffffffffffffffffffffffffffffffffffffff1673ffffffffffffffffffffffffffffffffffffffff16815260200191505060405180910390f35b600160009054906101000a900473ffffffffffffffffffffffffffffffffffffffff168156fea265627a7a72315820691a08bff37e5cfa20cd01115eab6c9a28a9ad71ee13d742313900ce133c25a164736f6c63430005100032",
  "source": "pragma solidity ^0.5.16;\r\n\r\nimport \"./FractalFile.sol\";\r\n\r\ncontract FractalSale {\r\n    address admin;\r\n    Fractal public tokenContract;\r\n\r\n    constructor(Fractal _tokenContract) public {\r\n        admin = msg.sender;\r\n        tokenContract = _tokenContract;\r\n        //Token Contract\r\n        //Token Price\r\n    }\r\n}\r\n",
  "sourcePath": "C:\\Users\\niewr\\Documents\\Crypto\\token_sale\\contracts\\FractalSaleFile.sol",
  "compiler": {
    "name": "solc",
    "version": "0.5.16+commit.9c3226ce.Emscripten.clang"
  },
  "schemaVersion": "3.4.16",
  "updatedAt": "2024-07-08T08:01:27.740Z",
  "networkType": "ethereum",
  "devdoc": {
    "methods": {}
  },
  "userdoc": {
    "methods": {}
  }
}