{
  "contractName": "Fractal",
  "abi": [
    {
      "inputs": [
        {
          "internalType": "uint256",
          "name": "_initialSupply",
          "type": "uint256"
        }
      ],
      "payable": false,
      "stateMutability": "nonpayable",
      "type": "constructor"
    },
    {
      "constant": true,
      "inputs": [],
      "name": "totalSupply",
      "outputs": [
        {
          "internalType": "uint256",
          "name": "",
          "type": "uint256"
        }
      ],
      "payable": false,
      "stateMutability": "view",
      "type": "function"
    }
  ],
  "bytecode": "0x608060405234801561001057600080fd5b506040516100de3803806100de8339818101604052602081101561003357600080fd5b8101908080519060200190929190505050806000819055505060848061005a6000396000f3fe6080604052348015600f57600080fd5b506004361060285760003560e01c806318160ddd14602d575b600080fd5b60336049565b6040518082815260200191505060405180910390f35b6000548156fea265627a7a72315820e401dd15356170d1b9fb3be86c893d881b09f1a46ee849a5710fa3968bf2c6b964736f6c63430005100032",
  "source": "pragma solidity ^0.5.16;\r\n\r\ncontract Fractal {\r\n    uint256 public totalSupply;\r\n\r\n    constructor(uint256 _initialSupply) public {\r\n        totalSupply = _initialSupply;\r\n    }\r\n}\r\n",
  "sourcePath": "C:\\Users\\niewr\\Documents\\Crypto\\token_sale\\contracts\\FractalFile.sol",
  "compiler": {
    "name": "solc",
    "version": "0.5.16+commit.9c3226ce.Emscripten.clang"
  },
  "schemaVersion": "3.4.16",
  "updatedAt": "2024-07-04T09:35:41.286Z",
  "networkType": "ethereum",
  "devdoc": {
    "methods": {}
  },
  "userdoc": {
    "methods": {}
  }
}